{
  "_format": "hh-sol-artifact-1",
  "contractName": "Passport",
  "sourceName": "contracts/Passport.sol",
  "abi": [
    {
      "inputs": [
        {
          "internalType": "string[]",
          "name": "passportNames",
          "type": "string[]"
        },
        {
          "internalType": "string[]",
          "name": "classes",
          "type": "string[]"
        },
        {
          "internalType": "string[]",
          "name": "passportImageURIs",
          "type": "string[]"
        }
      ],
      "stateMutability": "nonpayable",
      "type": "constructor"
    },
    {
      "anonymous": false,
      "inputs": [
        {
          "indexed": true,
          "internalType": "address",
          "name": "owner",
          "type": "address"
        },
        {
          "indexed": true,
          "internalType": "address",
          "name": "approved",
          "type": "address"
        },
        {
          "indexed": true,
          "internalType": "uint256",
          "name": "tokenId",
          "type": "uint256"
        }
      ],
      "name": "Approval",
      "type": "event"
    },
    {
      "anonymous": false,
      "inputs": [
        {
          "indexed": true,
          "internalType": "address",
          "name": "owner",
          "type": "address"
        },
        {
          "indexed": true,
          "internalType": "address",
          "name": "operator",
          "type": "address"
        },
        {
          "indexed": false,
          "internalType": "bool",
          "name": "approved",
          "type": "bool"
        }
      ],
      "name": "ApprovalForAll",
      "type": "event"
    },
    {
      "anonymous": false,
      "inputs": [
        {
          "indexed": false,
          "internalType": "address",
          "name": "sender",
          "type": "address"
        },
        {
          "indexed": false,
          "internalType": "uint256",
          "name": "tokenId",
          "type": "uint256"
        },
        {
          "indexed": false,
          "internalType": "uint256",
          "name": "passportIndex",
          "type": "uint256"
        }
      ],
      "name": "PassportNFTMinted",
      "type": "event"
    },
    {
      "anonymous": false,
      "inputs": [
        {
          "indexed": true,
          "internalType": "address",
          "name": "from",
          "type": "address"
        },
        {
          "indexed": true,
          "internalType": "address",
          "name": "to",
          "type": "address"
        },
        {
          "indexed": true,
          "internalType": "uint256",
          "name": "tokenId",
          "type": "uint256"
        }
      ],
      "name": "Transfer",
      "type": "event"
    },
    {
      "inputs": [
        {
          "internalType": "address",
          "name": "to",
          "type": "address"
        },
        {
          "internalType": "uint256",
          "name": "tokenId",
          "type": "uint256"
        }
      ],
      "name": "approve",
      "outputs": [],
      "stateMutability": "nonpayable",
      "type": "function"
    },
    {
      "inputs": [
        {
          "internalType": "address",
          "name": "owner",
          "type": "address"
        }
      ],
      "name": "balanceOf",
      "outputs": [
        {
          "internalType": "uint256",
          "name": "",
          "type": "uint256"
        }
      ],
      "stateMutability": "view",
      "type": "function"
    },
    {
      "inputs": [],
      "name": "checkIfUserHasNFT",
      "outputs": [
        {
          "components": [
            {
              "internalType": "uint256",
              "name": "passportIndex",
              "type": "uint256"
            },
            {
              "internalType": "string",
              "name": "name",
              "type": "string"
            },
            {
              "internalType": "string",
              "name": "class",
              "type": "string"
            },
            {
              "internalType": "string",
              "name": "imageURI",
              "type": "string"
            }
          ],
          "internalType": "struct Passport.PassportAttributes",
          "name": "",
          "type": "tuple"
        }
      ],
      "stateMutability": "view",
      "type": "function"
    },
    {
      "inputs": [],
      "name": "getAllDefaultPassports",
      "outputs": [
        {
          "components": [
            {
              "internalType": "uint256",
              "name": "passportIndex",
              "type": "uint256"
            },
            {
              "internalType": "string",
              "name": "name",
              "type": "string"
            },
            {
              "internalType": "string",
              "name": "class",
              "type": "string"
            },
            {
              "internalType": "string",
              "name": "imageURI",
              "type": "string"
            }
          ],
          "internalType": "struct Passport.PassportAttributes[]",
          "name": "",
          "type": "tuple[]"
        }
      ],
      "stateMutability": "view",
      "type": "function"
    },
    {
      "inputs": [
        {
          "internalType": "uint256",
          "name": "tokenId",
          "type": "uint256"
        }
      ],
      "name": "getApproved",
      "outputs": [
        {
          "internalType": "address",
          "name": "",
          "type": "address"
        }
      ],
      "stateMutability": "view",
      "type": "function"
    },
    {
      "inputs": [
        {
          "internalType": "address",
          "name": "owner",
          "type": "address"
        },
        {
          "internalType": "address",
          "name": "operator",
          "type": "address"
        }
      ],
      "name": "isApprovedForAll",
      "outputs": [
        {
          "internalType": "bool",
          "name": "",
          "type": "bool"
        }
      ],
      "stateMutability": "view",
      "type": "function"
    },
    {
      "inputs": [
        {
          "internalType": "uint256",
          "name": "_passportIndex",
          "type": "uint256"
        }
      ],
      "name": "mintPassportNFT",
      "outputs": [],
      "stateMutability": "nonpayable",
      "type": "function"
    },
    {
      "inputs": [],
      "name": "name",
      "outputs": [
        {
          "internalType": "string",
          "name": "",
          "type": "string"
        }
      ],
      "stateMutability": "view",
      "type": "function"
    },
    {
      "inputs": [
        {
          "internalType": "uint256",
          "name": "",
          "type": "uint256"
        }
      ],
      "name": "nftHolderAttributes",
      "outputs": [
        {
          "internalType": "uint256",
          "name": "passportIndex",
          "type": "uint256"
        },
        {
          "internalType": "string",
          "name": "name",
          "type": "string"
        },
        {
          "internalType": "string",
          "name": "class",
          "type": "string"
        },
        {
          "internalType": "string",
          "name": "imageURI",
          "type": "string"
        }
      ],
      "stateMutability": "view",
      "type": "function"
    },
    {
      "inputs": [
        {
          "internalType": "address",
          "name": "",
          "type": "address"
        }
      ],
      "name": "nftHolders",
      "outputs": [
        {
          "internalType": "uint256",
          "name": "",
          "type": "uint256"
        }
      ],
      "stateMutability": "view",
      "type": "function"
    },
    {
      "inputs": [
        {
          "internalType": "uint256",
          "name": "tokenId",
          "type": "uint256"
        }
      ],
      "name": "ownerOf",
      "outputs": [
        {
          "internalType": "address",
          "name": "",
          "type": "address"
        }
      ],
      "stateMutability": "view",
      "type": "function"
    },
    {
      "inputs": [
        {
          "internalType": "address",
          "name": "from",
          "type": "address"
        },
        {
          "internalType": "address",
          "name": "to",
          "type": "address"
        },
        {
          "internalType": "uint256",
          "name": "tokenId",
          "type": "uint256"
        }
      ],
      "name": "safeTransferFrom",
      "outputs": [],
      "stateMutability": "nonpayable",
      "type": "function"
    },
    {
      "inputs": [
        {
          "internalType": "address",
          "name": "from",
          "type": "address"
        },
        {
          "internalType": "address",
          "name": "to",
          "type": "address"
        },
        {
          "internalType": "uint256",
          "name": "tokenId",
          "type": "uint256"
        },
        {
          "internalType": "bytes",
          "name": "_data",
          "type": "bytes"
        }
      ],
      "name": "safeTransferFrom",
      "outputs": [],
      "stateMutability": "nonpayable",
      "type": "function"
    },
    {
      "inputs": [
        {
          "internalType": "address",
          "name": "operator",
          "type": "address"
        },
        {
          "internalType": "bool",
          "name": "approved",
          "type": "bool"
        }
      ],
      "name": "setApprovalForAll",
      "outputs": [],
      "stateMutability": "nonpayable",
      "type": "function"
    },
    {
      "inputs": [
        {
          "internalType": "bytes4",
          "name": "interfaceId",
          "type": "bytes4"
        }
      ],
      "name": "supportsInterface",
      "outputs": [
        {
          "internalType": "bool",
          "name": "",
          "type": "bool"
        }
      ],
      "stateMutability": "view",
      "type": "function"
    },
    {
      "inputs": [],
      "name": "symbol",
      "outputs": [
        {
          "internalType": "string",
          "name": "",
          "type": "string"
        }
      ],
      "stateMutability": "view",
      "type": "function"
    },
    {
      "inputs": [
        {
          "internalType": "uint256",
          "name": "_tokenId",
          "type": "uint256"
        }
      ],
      "name": "tokenURI",
      "outputs": [
        {
          "internalType": "string",
          "name": "",
          "type": "string"
        }
      ],
      "stateMutability": "view",
      "type": "function"
    },
    {
      "inputs": [
        {
          "internalType": "address",
          "name": "from",
          "type": "address"
        },
        {
          "internalType": "address",
          "name": "to",
          "type": "address"
        },
        {
          "internalType": "uint256",
          "name": "tokenId",
          "type": "uint256"
        }
      ],
      "name": "transferFrom",
      "outputs": [],
      "stateMutability": "nonpayable",
      "type": "function"
    }
  ],
  "bytecode": "0x60806040523480156200001157600080fd5b5060405162004b5c38038062004b5c8339818101604052810190620000379190620007c4565b6040518060400160405280600881526020017f50617373706f72740000000000000000000000000000000000000000000000008152506040518060400160405280600881526020017f70617373706f72740000000000000000000000000000000000000000000000008152508160009080519060200190620000bb929190620005e5565b508060019080519060200190620000d4929190620005e5565b50505060005b8351811015620004dc576007604051806080016040528083815260200186848151811062000131577f4e487b7100000000000000000000000000000000000000000000000000000000600052603260045260246000fd5b6020026020010151815260200185848151811062000178577f4e487b7100000000000000000000000000000000000000000000000000000000600052603260045260246000fd5b60200260200101518152602001848481518110620001bf577f4e487b7100000000000000000000000000000000000000000000000000000000600052603260045260246000fd5b602002602001015181525090806001815401808255809150506001900390600052602060002090600402016000909190919091506000820151816000015560208201518160010190805190602001906200021b929190620005e5565b5060408201518160020190805190602001906200023a929190620005e5565b50606082015181600301908051906020019062000259929190620005e5565b50505060006007828154811062000299577f4e487b7100000000000000000000000000000000000000000000000000000000600052603260045260246000fd5b906000526020600020906004020160405180608001604052908160008201548152602001600182018054620002ce90620009e2565b80601f0160208091040260200160405190810160405280929190818152602001828054620002fc90620009e2565b80156200034d5780601f1062000321576101008083540402835291602001916200034d565b820191906000526020600020905b8154815290600101906020018083116200032f57829003601f168201915b505050505081526020016002820180546200036890620009e2565b80601f01602080910402602001604051908101604052809291908181526020018280546200039690620009e2565b8015620003e75780601f10620003bb57610100808354040283529160200191620003e7565b820191906000526020600020905b815481529060010190602001808311620003c957829003601f168201915b505050505081526020016003820180546200040290620009e2565b80601f01602080910402602001604051908101604052809291908181526020018280546200043090620009e2565b8015620004815780601f10620004555761010080835404028352916020019162000481565b820191906000526020600020905b8154815290600101906020018083116200046357829003601f168201915b5050505050815250509050620004c560405180606001604052806028815260200162004b346028913982602001518360400151620004fd60201b6200183f1760201c565b508080620004d39062000a4e565b915050620000da565b50620004f46006620005a660201b620018de1760201c565b50505062000b3a565b620005a18383836040516024016200051893929190620008a6565b6040516020818303038152906040527f2ced7cef000000000000000000000000000000000000000000000000000000007bffffffffffffffffffffffffffffffffffffffffffffffffffffffff19166020820180517bffffffffffffffffffffffffffffffffffffffffffffffffffffffff8381831617835250505050620005bc60201b60201c565b505050565b6001816000016000828254019250508190555050565b60008151905060006a636f6e736f6c652e6c6f679050602083016000808483855afa5050505050565b828054620005f390620009e2565b90600052602060002090601f01602090048101928262000617576000855562000663565b82601f106200063257805160ff191683800117855562000663565b8280016001018555821562000663579182015b828111156200066257825182559160200191906001019062000645565b5b50905062000672919062000676565b5090565b5b808211156200069157600081600090555060010162000677565b5090565b6000620006ac620006a68462000921565b620008f8565b90508083825260208201905082856020860282011115620006cc57600080fd5b60005b858110156200071b57815167ffffffffffffffff811115620006f057600080fd5b808601620006ff898262000797565b85526020850194506020840193505050600181019050620006cf565b5050509392505050565b60006200073c620007368462000950565b620008f8565b9050828152602081018484840111156200075557600080fd5b62000762848285620009ac565b509392505050565b600082601f8301126200077c57600080fd5b81516200078e84826020860162000695565b91505092915050565b600082601f830112620007a957600080fd5b8151620007bb84826020860162000725565b91505092915050565b600080600060608486031215620007da57600080fd5b600084015167ffffffffffffffff811115620007f557600080fd5b62000803868287016200076a565b935050602084015167ffffffffffffffff8111156200082157600080fd5b6200082f868287016200076a565b925050604084015167ffffffffffffffff8111156200084d57600080fd5b6200085b868287016200076a565b9150509250925092565b6000620008728262000986565b6200087e818562000991565b935062000890818560208601620009ac565b6200089b8162000b29565b840191505092915050565b60006060820190508181036000830152620008c2818662000865565b90508181036020830152620008d8818562000865565b90508181036040830152620008ee818462000865565b9050949350505050565b60006200090462000917565b905062000912828262000a18565b919050565b6000604051905090565b600067ffffffffffffffff8211156200093f576200093e62000afa565b5b602082029050602081019050919050565b600067ffffffffffffffff8211156200096e576200096d62000afa565b5b620009798262000b29565b9050602081019050919050565b600081519050919050565b600082825260208201905092915050565b6000819050919050565b60005b83811015620009cc578082015181840152602081019050620009af565b83811115620009dc576000848401525b50505050565b60006002820490506001821680620009fb57607f821691505b6020821081141562000a125762000a1162000acb565b5b50919050565b62000a238262000b29565b810181811067ffffffffffffffff8211171562000a455762000a4462000afa565b5b80604052505050565b600062000a5b82620009a2565b91507fffffffffffffffffffffffffffffffffffffffffffffffffffffffffffffffff82141562000a915762000a9062000a9c565b5b600182019050919050565b7f4e487b7100000000000000000000000000000000000000000000000000000000600052601160045260246000fd5b7f4e487b7100000000000000000000000000000000000000000000000000000000600052602260045260246000fd5b7f4e487b7100000000000000000000000000000000000000000000000000000000600052604160045260246000fd5b6000601f19601f8301169050919050565b613fea8062000b4a6000396000f3fe608060405234801561001057600080fd5b50600436106101165760003560e01c80637df124a1116100a2578063a22cb46511610071578063a22cb46514610308578063b88d4fde14610324578063c87b56dd14610340578063c8cf27f414610370578063e985e9c51461038e57610116565b80637df124a1146102695780638aaf146f1461029957806395d89b41146102b757806398da4c95146102d557610116565b806323b872dd116100e957806323b872dd146101b557806342842e0e146101d15780635cfe5f5f146101ed5780636352211e1461020957806370a082311461023957610116565b806301ffc9a71461011b57806306fdde031461014b578063081812fc14610169578063095ea7b314610199575b600080fd5b6101356004803603810190610130919061299b565b6103be565b6040516101429190613141565b60405180910390f35b6101536104a0565b604051610160919061315c565b60405180910390f35b610183600480360381019061017e91906129ed565b610532565b6040516101909190613081565b60405180910390f35b6101b360048036038101906101ae919061295f565b6105b7565b005b6101cf60048036038101906101ca9190612859565b6106cf565b005b6101eb60048036038101906101e69190612859565b61072f565b005b610207600480360381019061020291906129ed565b61074f565b005b610223600480360381019061021e91906129ed565b610b28565b6040516102309190613081565b60405180910390f35b610253600480360381019061024e91906127f4565b610bda565b60405161026091906133ca565b60405180910390f35b610283600480360381019061027e91906127f4565b610c92565b60405161029091906133ca565b60405180910390f35b6102a1610caa565b6040516102ae919061311f565b60405180910390f35b6102bf610ec9565b6040516102cc919061315c565b60405180910390f35b6102ef60048036038101906102ea91906129ed565b610f5b565b6040516102ff94939291906133e5565b60405180910390f35b610322600480360381019061031d9190612923565b611123565b005b61033e600480360381019061033991906128a8565b6112a4565b005b61035a600480360381019061035591906129ed565b611306565b604051610367919061315c565b60405180910390f35b61037861155f565b60405161038591906133a8565b60405180910390f35b6103a860048036038101906103a3919061281d565b6117ab565b6040516103b59190613141565b60405180910390f35b60007f80ac58cd000000000000000000000000000000000000000000000000000000007bffffffffffffffffffffffffffffffffffffffffffffffffffffffff1916827bffffffffffffffffffffffffffffffffffffffffffffffffffffffff1916148061048957507f5b5e139f000000000000000000000000000000000000000000000000000000007bffffffffffffffffffffffffffffffffffffffffffffffffffffffff1916827bffffffffffffffffffffffffffffffffffffffffffffffffffffffff1916145b806104995750610498826118f4565b5b9050919050565b6060600080546104af906136ed565b80601f01602080910402602001604051908101604052809291908181526020018280546104db906136ed565b80156105285780601f106104fd57610100808354040283529160200191610528565b820191906000526020600020905b81548152906001019060200180831161050b57829003601f168201915b5050505050905090565b600061053d8261195e565b61057c576040517f08c379a000000000000000000000000000000000000000000000000000000000815260040161057390613328565b60405180910390fd5b6004600083815260200190815260200160002060009054906101000a900473ffffffffffffffffffffffffffffffffffffffff169050919050565b60006105c282610b28565b90508073ffffffffffffffffffffffffffffffffffffffff168373ffffffffffffffffffffffffffffffffffffffff161415610633576040517f08c379a000000000000000000000000000000000000000000000000000000000815260040161062a90613368565b60405180910390fd5b8073ffffffffffffffffffffffffffffffffffffffff166106526119ca565b73ffffffffffffffffffffffffffffffffffffffff16148061068157506106808161067b6119ca565b6117ab565b5b6106c0576040517f08c379a00000000000000000000000000000000000000000000000000000000081526004016106b7906132a8565b60405180910390fd5b6106ca83836119d2565b505050565b6106e06106da6119ca565b82611a8b565b61071f576040517f08c379a000000000000000000000000000000000000000000000000000000000815260040161071690613388565b60405180910390fd5b61072a838383611b69565b505050565b61074a838383604051806020016040528060008152506112a4565b505050565b600061075b6006611dc5565b90506107673382611dd3565b6040518060800160405280838152602001600784815481106107b2577f4e487b7100000000000000000000000000000000000000000000000000000000600052603260045260246000fd5b906000526020600020906004020160010180546107ce906136ed565b80601f01602080910402602001604051908101604052809291908181526020018280546107fa906136ed565b80156108475780601f1061081c57610100808354040283529160200191610847565b820191906000526020600020905b81548152906001019060200180831161082a57829003601f168201915b505050505081526020016007848154811061088b577f4e487b7100000000000000000000000000000000000000000000000000000000600052603260045260246000fd5b906000526020600020906004020160020180546108a7906136ed565b80601f01602080910402602001604051908101604052809291908181526020018280546108d3906136ed565b80156109205780601f106108f557610100808354040283529160200191610920565b820191906000526020600020905b81548152906001019060200180831161090357829003601f168201915b5050505050815260200160078481548110610964577f4e487b7100000000000000000000000000000000000000000000000000000000600052603260045260246000fd5b90600052602060002090600402016003018054610980906136ed565b80601f01602080910402602001604051908101604052809291908181526020018280546109ac906136ed565b80156109f95780601f106109ce576101008083540402835291602001916109f9565b820191906000526020600020905b8154815290600101906020018083116109dc57829003601f168201915b505050505081525060086000838152602001908152602001600020600082015181600001556020820151816001019080519060200190610a3a929190612658565b506040820151816002019080519060200190610a57929190612658565b506060820151816003019080519060200190610a74929190612658565b50905050610a9b604051806060016040528060268152602001613f4f602691398284611df1565b80600960003373ffffffffffffffffffffffffffffffffffffffff1673ffffffffffffffffffffffffffffffffffffffff16815260200190815260200160002081905550610ae960066118de565b7fc5cb615ae1ca9950c1ddb2168ccc41e28855feaba97148445e51bc8384ebebca338284604051610b1c939291906130e8565b60405180910390a15050565b6000806002600084815260200190815260200160002060009054906101000a900473ffffffffffffffffffffffffffffffffffffffff169050600073ffffffffffffffffffffffffffffffffffffffff168173ffffffffffffffffffffffffffffffffffffffff161415610bd1576040517f08c379a0000000000000000000000000000000000000000000000000000000008152600401610bc8906132e8565b60405180910390fd5b80915050919050565b60008073ffffffffffffffffffffffffffffffffffffffff168273ffffffffffffffffffffffffffffffffffffffff161415610c4b576040517f08c379a0000000000000000000000000000000000000000000000000000000008152600401610c42906132c8565b60405180910390fd5b600360008373ffffffffffffffffffffffffffffffffffffffff1673ffffffffffffffffffffffffffffffffffffffff168152602001908152602001600020549050919050565b60096020528060005260406000206000915090505481565b60606007805480602002602001604051908101604052809291908181526020016000905b82821015610ec0578382906000526020600020906004020160405180608001604052908160008201548152602001600182018054610d0b906136ed565b80601f0160208091040260200160405190810160405280929190818152602001828054610d37906136ed565b8015610d845780601f10610d5957610100808354040283529160200191610d84565b820191906000526020600020905b815481529060010190602001808311610d6757829003601f168201915b50505050508152602001600282018054610d9d906136ed565b80601f0160208091040260200160405190810160405280929190818152602001828054610dc9906136ed565b8015610e165780601f10610deb57610100808354040283529160200191610e16565b820191906000526020600020905b815481529060010190602001808311610df957829003601f168201915b50505050508152602001600382018054610e2f906136ed565b80601f0160208091040260200160405190810160405280929190818152602001828054610e5b906136ed565b8015610ea85780601f10610e7d57610100808354040283529160200191610ea8565b820191906000526020600020905b815481529060010190602001808311610e8b57829003601f168201915b50505050508152505081526020019060010190610cce565b50505050905090565b606060018054610ed8906136ed565b80601f0160208091040260200160405190810160405280929190818152602001828054610f04906136ed565b8015610f515780601f10610f2657610100808354040283529160200191610f51565b820191906000526020600020905b815481529060010190602001808311610f3457829003601f168201915b5050505050905090565b6008602052806000526040600020600091509050806000015490806001018054610f84906136ed565b80601f0160208091040260200160405190810160405280929190818152602001828054610fb0906136ed565b8015610ffd5780601f10610fd257610100808354040283529160200191610ffd565b820191906000526020600020905b815481529060010190602001808311610fe057829003601f168201915b505050505090806002018054611012906136ed565b80601f016020809104026020016040519081016040528092919081815260200182805461103e906136ed565b801561108b5780601f106110605761010080835404028352916020019161108b565b820191906000526020600020905b81548152906001019060200180831161106e57829003601f168201915b5050505050908060030180546110a0906136ed565b80601f01602080910402602001604051908101604052809291908181526020018280546110cc906136ed565b80156111195780601f106110ee57610100808354040283529160200191611119565b820191906000526020600020905b8154815290600101906020018083116110fc57829003601f168201915b5050505050905084565b61112b6119ca565b73ffffffffffffffffffffffffffffffffffffffff168273ffffffffffffffffffffffffffffffffffffffff161415611199576040517f08c379a000000000000000000000000000000000000000000000000000000000815260040161119090613268565b60405180910390fd5b80600560006111a66119ca565b73ffffffffffffffffffffffffffffffffffffffff1673ffffffffffffffffffffffffffffffffffffffff16815260200190815260200160002060008473ffffffffffffffffffffffffffffffffffffffff1673ffffffffffffffffffffffffffffffffffffffff16815260200190815260200160002060006101000a81548160ff0219169083151502179055508173ffffffffffffffffffffffffffffffffffffffff166112536119ca565b73ffffffffffffffffffffffffffffffffffffffff167f17307eab39ab6107e8899845ad3d59bd9653f200f220920489ca2b5937696c31836040516112989190613141565b60405180910390a35050565b6112b56112af6119ca565b83611a8b565b6112f4576040517f08c379a00000000000000000000000000000000000000000000000000000000081526004016112eb90613388565b60405180910390fd5b61130084848484611e90565b50505050565b606060006008600084815260200190815260200160002060405180608001604052908160008201548152602001600182018054611342906136ed565b80601f016020809104026020016040519081016040528092919081815260200182805461136e906136ed565b80156113bb5780601f10611390576101008083540402835291602001916113bb565b820191906000526020600020905b81548152906001019060200180831161139e57829003601f168201915b505050505081526020016002820180546113d4906136ed565b80601f0160208091040260200160405190810160405280929190818152602001828054611400906136ed565b801561144d5780601f106114225761010080835404028352916020019161144d565b820191906000526020600020905b81548152906001019060200180831161143057829003601f168201915b50505050508152602001600382018054611466906136ed565b80601f0160208091040260200160405190810160405280929190818152602001828054611492906136ed565b80156114df5780601f106114b4576101008083540402835291602001916114df565b820191906000526020600020905b8154815290600101906020018083116114c257829003601f168201915b5050505050815250509050600061152e82602001516114fd86611eec565b8460600151856040015160405160200161151a9493929190612fbe565b604051602081830303815290604052612099565b9050600081604051602001611543919061305f565b6040516020818303038152906040529050809350505050919050565b6115676126de565b6000600960003373ffffffffffffffffffffffffffffffffffffffff1673ffffffffffffffffffffffffffffffffffffffff168152602001908152602001600020549050600081111561179a5760086000828152602001908152602001600020604051806080016040529081600082015481526020016001820180546115ec906136ed565b80601f0160208091040260200160405190810160405280929190818152602001828054611618906136ed565b80156116655780601f1061163a57610100808354040283529160200191611665565b820191906000526020600020905b81548152906001019060200180831161164857829003601f168201915b5050505050815260200160028201805461167e906136ed565b80601f01602080910402602001604051908101604052809291908181526020018280546116aa906136ed565b80156116f75780601f106116cc576101008083540402835291602001916116f7565b820191906000526020600020905b8154815290600101906020018083116116da57829003601f168201915b50505050508152602001600382018054611710906136ed565b80601f016020809104026020016040519081016040528092919081815260200182805461173c906136ed565b80156117895780601f1061175e57610100808354040283529160200191611789565b820191906000526020600020905b81548152906001019060200180831161176c57829003601f168201915b5050505050815250509150506117a8565b6117a26126de565b80925050505b90565b6000600560008473ffffffffffffffffffffffffffffffffffffffff1673ffffffffffffffffffffffffffffffffffffffff16815260200190815260200160002060008373ffffffffffffffffffffffffffffffffffffffff1673ffffffffffffffffffffffffffffffffffffffff16815260200190815260200160002060009054906101000a900460ff16905092915050565b6118d98383836040516024016118579392919061317e565b6040516020818303038152906040527f2ced7cef000000000000000000000000000000000000000000000000000000007bffffffffffffffffffffffffffffffffffffffffffffffffffffffff19166020820180517bffffffffffffffffffffffffffffffffffffffffffffffffffffffff8381831617835250505050612257565b505050565b6001816000016000828254019250508190555050565b60007f01ffc9a7000000000000000000000000000000000000000000000000000000007bffffffffffffffffffffffffffffffffffffffffffffffffffffffff1916827bffffffffffffffffffffffffffffffffffffffffffffffffffffffff1916149050919050565b60008073ffffffffffffffffffffffffffffffffffffffff166002600084815260200190815260200160002060009054906101000a900473ffffffffffffffffffffffffffffffffffffffff1673ffffffffffffffffffffffffffffffffffffffff1614159050919050565b600033905090565b816004600083815260200190815260200160002060006101000a81548173ffffffffffffffffffffffffffffffffffffffff021916908373ffffffffffffffffffffffffffffffffffffffff160217905550808273ffffffffffffffffffffffffffffffffffffffff16611a4583610b28565b73ffffffffffffffffffffffffffffffffffffffff167f8c5be1e5ebec7d5bd14f71427d1e84f3dd0314c0f7b2291e5b200ac8c7c3b92560405160405180910390a45050565b6000611a968261195e565b611ad5576040517f08c379a0000000000000000000000000000000000000000000000000000000008152600401611acc90613288565b60405180910390fd5b6000611ae083610b28565b90508073ffffffffffffffffffffffffffffffffffffffff168473ffffffffffffffffffffffffffffffffffffffff161480611b4f57508373ffffffffffffffffffffffffffffffffffffffff16611b3784610532565b73ffffffffffffffffffffffffffffffffffffffff16145b80611b605750611b5f81856117ab565b5b91505092915050565b8273ffffffffffffffffffffffffffffffffffffffff16611b8982610b28565b73ffffffffffffffffffffffffffffffffffffffff1614611bdf576040517f08c379a0000000000000000000000000000000000000000000000000000000008152600401611bd690613348565b60405180910390fd5b600073ffffffffffffffffffffffffffffffffffffffff168273ffffffffffffffffffffffffffffffffffffffff161415611c4f576040517f08c379a0000000000000000000000000000000000000000000000000000000008152600401611c4690613248565b60405180910390fd5b611c5a838383612280565b611c656000826119d2565b6001600360008573ffffffffffffffffffffffffffffffffffffffff1673ffffffffffffffffffffffffffffffffffffffff1681526020019081526020016000206000828254611cb59190613603565b925050819055506001600360008473ffffffffffffffffffffffffffffffffffffffff1673ffffffffffffffffffffffffffffffffffffffff1681526020019081526020016000206000828254611d0c9190613522565b92505081905550816002600083815260200190815260200160002060006101000a81548173ffffffffffffffffffffffffffffffffffffffff021916908373ffffffffffffffffffffffffffffffffffffffff160217905550808273ffffffffffffffffffffffffffffffffffffffff168473ffffffffffffffffffffffffffffffffffffffff167fddf252ad1be2c89b69c2b068fc378daa952ba7f163c4a11628f55a4df523b3ef60405160405180910390a4505050565b600081600001549050919050565b611ded828260405180602001604052806000815250612285565b5050565b611e8b838383604051602401611e09939291906131ca565b6040516020818303038152906040527f969cdd03000000000000000000000000000000000000000000000000000000007bffffffffffffffffffffffffffffffffffffffffffffffffffffffff19166020820180517bffffffffffffffffffffffffffffffffffffffffffffffffffffffff8381831617835250505050612257565b505050565b611e9b848484611b69565b611ea7848484846122e0565b611ee6576040517f08c379a0000000000000000000000000000000000000000000000000000000008152600401611edd90613208565b60405180910390fd5b50505050565b60606000821415611f34576040518060400160405280600181526020017f30000000000000000000000000000000000000000000000000000000000000008152509050612094565b600082905060005b60008214611f66578080611f4f90613750565b915050600a82611f5f9190613578565b9150611f3c565b60008167ffffffffffffffff811115611fa8577f4e487b7100000000000000000000000000000000000000000000000000000000600052604160045260246000fd5b6040519080825280601f01601f191660200182016040528015611fda5781602001600182028036833780820191505090505b5090505b6000851461208d57600182611ff39190613603565b9150600a856120029190613799565b603061200e9190613522565b60f81b81838151811061204a577f4e487b7100000000000000000000000000000000000000000000000000000000600052603260045260246000fd5b60200101907effffffffffffffffffffffffffffffffffffffffffffffffffffffffffffff1916908160001a905350600a856120869190613578565b9450611fde565b8093505050505b919050565b606060008251905060008114156120c25760405180602001604052806000815250915050612252565b600060036002836120d39190613522565b6120dd9190613578565b60046120e991906135a9565b905060006020826120fa9190613522565b67ffffffffffffffff811115612139577f4e487b7100000000000000000000000000000000000000000000000000000000600052604160045260246000fd5b6040519080825280601f01601f19166020018201604052801561216b5781602001600182028036833780820191505090505b5090506000604051806060016040528060408152602001613f75604091399050600181016020830160005b8681101561220f5760038101905062ffffff818a015116603f8160121c168401518060081b905060ff603f83600c1c1686015116810190508060081b905060ff603f8360061c1686015116810190508060081b905060ff603f831686015116810190508060e01b90508084526004840193505050612196565b506003860660018114612229576002811461223957612244565b613d3d60f01b6002830352612244565b603d60f81b60018303525b508484525050819450505050505b919050565b60008151905060006a636f6e736f6c652e6c6f679050602083016000808483855afa5050505050565b505050565b61228f8383612477565b61229c60008484846122e0565b6122db576040517f08c379a00000000000000000000000000000000000000000000000000000000081526004016122d290613208565b60405180910390fd5b505050565b60006123018473ffffffffffffffffffffffffffffffffffffffff16612645565b1561246a578373ffffffffffffffffffffffffffffffffffffffff1663150b7a0261232a6119ca565b8786866040518563ffffffff1660e01b815260040161234c949392919061309c565b602060405180830381600087803b15801561236657600080fd5b505af192505050801561239757506040513d601f19601f8201168201806040525081019061239491906129c4565b60015b61241a573d80600081146123c7576040519150601f19603f3d011682016040523d82523d6000602084013e6123cc565b606091505b50600081511415612412576040517f08c379a000000000000000000000000000000000000000000000000000000000815260040161240990613208565b60405180910390fd5b805181602001fd5b63150b7a0260e01b7bffffffffffffffffffffffffffffffffffffffffffffffffffffffff1916817bffffffffffffffffffffffffffffffffffffffffffffffffffffffff19161491505061246f565b600190505b949350505050565b600073ffffffffffffffffffffffffffffffffffffffff168273ffffffffffffffffffffffffffffffffffffffff1614156124e7576040517f08c379a00000000000000000000000000000000000000000000000000000000081526004016124de90613308565b60405180910390fd5b6124f08161195e565b15612530576040517f08c379a000000000000000000000000000000000000000000000000000000000815260040161252790613228565b60405180910390fd5b61253c60008383612280565b6001600360008473ffffffffffffffffffffffffffffffffffffffff1673ffffffffffffffffffffffffffffffffffffffff168152602001908152602001600020600082825461258c9190613522565b92505081905550816002600083815260200190815260200160002060006101000a81548173ffffffffffffffffffffffffffffffffffffffff021916908373ffffffffffffffffffffffffffffffffffffffff160217905550808273ffffffffffffffffffffffffffffffffffffffff16600073ffffffffffffffffffffffffffffffffffffffff167fddf252ad1be2c89b69c2b068fc378daa952ba7f163c4a11628f55a4df523b3ef60405160405180910390a45050565b600080823b905060008111915050919050565b828054612664906136ed565b90600052602060002090601f01602090048101928261268657600085556126cd565b82601f1061269f57805160ff19168380011785556126cd565b828001600101855582156126cd579182015b828111156126cc5782518255916020019190600101906126b1565b5b5090506126da9190612706565b5090565b6040518060800160405280600081526020016060815260200160608152602001606081525090565b5b8082111561271f576000816000905550600101612707565b5090565b600061273661273184613464565b61343f565b90508281526020810184848401111561274e57600080fd5b6127598482856136ab565b509392505050565b60008135905061277081613ef2565b92915050565b60008135905061278581613f09565b92915050565b60008135905061279a81613f20565b92915050565b6000815190506127af81613f20565b92915050565b600082601f8301126127c657600080fd5b81356127d6848260208601612723565b91505092915050565b6000813590506127ee81613f37565b92915050565b60006020828403121561280657600080fd5b600061281484828501612761565b91505092915050565b6000806040838503121561283057600080fd5b600061283e85828601612761565b925050602061284f85828601612761565b9150509250929050565b60008060006060848603121561286e57600080fd5b600061287c86828701612761565b935050602061288d86828701612761565b925050604061289e868287016127df565b9150509250925092565b600080600080608085870312156128be57600080fd5b60006128cc87828801612761565b94505060206128dd87828801612761565b93505060406128ee878288016127df565b925050606085013567ffffffffffffffff81111561290b57600080fd5b612917878288016127b5565b91505092959194509250565b6000806040838503121561293657600080fd5b600061294485828601612761565b925050602061295585828601612776565b9150509250929050565b6000806040838503121561297257600080fd5b600061298085828601612761565b9250506020612991858286016127df565b9150509250929050565b6000602082840312156129ad57600080fd5b60006129bb8482850161278b565b91505092915050565b6000602082840312156129d657600080fd5b60006129e4848285016127a0565b91505092915050565b6000602082840312156129ff57600080fd5b6000612a0d848285016127df565b91505092915050565b6000612a228383612ebe565b905092915050565b612a3381613637565b82525050565b6000612a44826134a5565b612a4e81856134d3565b935083602082028501612a6085613495565b8060005b85811015612a9c5784840389528151612a7d8582612a16565b9450612a88836134c6565b925060208a01995050600181019050612a64565b50829750879550505050505092915050565b612ab781613649565b82525050565b6000612ac8826134b0565b612ad281856134e4565b9350612ae28185602086016136ba565b612aeb81613886565b840191505092915050565b6000612b01826134bb565b612b0b81856134f5565b9350612b1b8185602086016136ba565b612b2481613886565b840191505092915050565b6000612b3a826134bb565b612b448185613506565b9350612b548185602086016136ba565b612b5d81613886565b840191505092915050565b6000612b73826134bb565b612b7d8185613517565b9350612b8d8185602086016136ba565b80840191505092915050565b6000612ba6603b83613517565b9150612bb182613897565b603b82019050919050565b6000612bc9603283613506565b9150612bd4826138e6565b604082019050919050565b6000612bec600283613517565b9150612bf782613935565b600282019050919050565b6000612c0f601c83613506565b9150612c1a8261395e565b602082019050919050565b6000612c32604183613517565b9150612c3d82613987565b604182019050919050565b6000612c55602483613506565b9150612c60826139fc565b604082019050919050565b6000612c78601983613506565b9150612c8382613a4b565b602082019050919050565b6000612c9b602c83613506565b9150612ca682613a74565b604082019050919050565b6000612cbe603883613506565b9150612cc982613ac3565b604082019050919050565b6000612ce1602a83613506565b9150612cec82613b12565b604082019050919050565b6000612d04602983613506565b9150612d0f82613b61565b604082019050919050565b6000612d27602083613506565b9150612d3282613bb0565b602082019050919050565b6000612d4a602c83613506565b9150612d5582613bd9565b604082019050919050565b6000612d6d603683613517565b9150612d7882613c28565b603682019050919050565b6000612d90602983613506565b9150612d9b82613c77565b604082019050919050565b6000612db3600a83613517565b9150612dbe82613cc6565b600a82019050919050565b6000612dd6603283613517565b9150612de182613cef565b603282019050919050565b6000612df9602183613506565b9150612e0482613d3e565b604082019050919050565b6000612e1c602d83613517565b9150612e2782613d8d565b602d82019050919050565b6000612e3f601d83613517565b9150612e4a82613ddc565b601d82019050919050565b6000612e62603183613506565b9150612e6d82613e05565b604082019050919050565b6000612e85602f83613517565b9150612e9082613e54565b602f82019050919050565b6000612ea8603283613517565b9150612eb382613ea3565b603282019050919050565b6000608083016000830151612ed66000860182612fa0565b5060208301518482036020860152612eee8282612af6565b91505060408301518482036040860152612f088282612af6565b91505060608301518482036060860152612f228282612af6565b9150508091505092915050565b6000608083016000830151612f476000860182612fa0565b5060208301518482036020860152612f5f8282612af6565b91505060408301518482036040860152612f798282612af6565b91505060608301518482036060860152612f938282612af6565b9150508091505092915050565b612fa9816136a1565b82525050565b612fb8816136a1565b82525050565b6000612fc982612da6565b9150612fd58287612b68565b9150612fe082612bdf565b9150612fec8286612b68565b9150612ff782612c25565b91506130038285612b68565b915061300e82612d60565b915061301a8284612b68565b915061302582612e9b565b915061303082612b99565b915061303b82612e0f565b915061304682612e78565b915061305182612dc9565b915081905095945050505050565b600061306a82612e32565b91506130768284612b68565b915081905092915050565b60006020820190506130966000830184612a2a565b92915050565b60006080820190506130b16000830187612a2a565b6130be6020830186612a2a565b6130cb6040830185612faf565b81810360608301526130dd8184612abd565b905095945050505050565b60006060820190506130fd6000830186612a2a565b61310a6020830185612faf565b6131176040830184612faf565b949350505050565b600060208201905081810360008301526131398184612a39565b905092915050565b60006020820190506131566000830184612aae565b92915050565b600060208201905081810360008301526131768184612b2f565b905092915050565b600060608201905081810360008301526131988186612b2f565b905081810360208301526131ac8185612b2f565b905081810360408301526131c08184612b2f565b9050949350505050565b600060608201905081810360008301526131e48186612b2f565b90506131f36020830185612faf565b6132006040830184612faf565b949350505050565b6000602082019050818103600083015261322181612bbc565b9050919050565b6000602082019050818103600083015261324181612c02565b9050919050565b6000602082019050818103600083015261326181612c48565b9050919050565b6000602082019050818103600083015261328181612c6b565b9050919050565b600060208201905081810360008301526132a181612c8e565b9050919050565b600060208201905081810360008301526132c181612cb1565b9050919050565b600060208201905081810360008301526132e181612cd4565b9050919050565b6000602082019050818103600083015261330181612cf7565b9050919050565b6000602082019050818103600083015261332181612d1a565b9050919050565b6000602082019050818103600083015261334181612d3d565b9050919050565b6000602082019050818103600083015261336181612d83565b9050919050565b6000602082019050818103600083015261338181612dec565b9050919050565b600060208201905081810360008301526133a181612e55565b9050919050565b600060208201905081810360008301526133c28184612f2f565b905092915050565b60006020820190506133df6000830184612faf565b92915050565b60006080820190506133fa6000830187612faf565b818103602083015261340c8186612b2f565b905081810360408301526134208185612b2f565b905081810360608301526134348184612b2f565b905095945050505050565b600061344961345a565b9050613455828261371f565b919050565b6000604051905090565b600067ffffffffffffffff82111561347f5761347e613857565b5b61348882613886565b9050602081019050919050565b6000819050602082019050919050565b600081519050919050565b600081519050919050565b600081519050919050565b6000602082019050919050565b600082825260208201905092915050565b600082825260208201905092915050565b600082825260208201905092915050565b600082825260208201905092915050565b600081905092915050565b600061352d826136a1565b9150613538836136a1565b9250827fffffffffffffffffffffffffffffffffffffffffffffffffffffffffffffffff0382111561356d5761356c6137ca565b5b828201905092915050565b6000613583826136a1565b915061358e836136a1565b92508261359e5761359d6137f9565b5b828204905092915050565b60006135b4826136a1565b91506135bf836136a1565b9250817fffffffffffffffffffffffffffffffffffffffffffffffffffffffffffffffff04831182151516156135f8576135f76137ca565b5b828202905092915050565b600061360e826136a1565b9150613619836136a1565b92508282101561362c5761362b6137ca565b5b828203905092915050565b600061364282613681565b9050919050565b60008115159050919050565b60007fffffffff0000000000000000000000000000000000000000000000000000000082169050919050565b600073ffffffffffffffffffffffffffffffffffffffff82169050919050565b6000819050919050565b82818337600083830152505050565b60005b838110156136d85780820151818401526020810190506136bd565b838111156136e7576000848401525b50505050565b6000600282049050600182168061370557607f821691505b6020821081141561371957613718613828565b5b50919050565b61372882613886565b810181811067ffffffffffffffff8211171561374757613746613857565b5b80604052505050565b600061375b826136a1565b91507fffffffffffffffffffffffffffffffffffffffffffffffffffffffffffffffff82141561378e5761378d6137ca565b5b600182019050919050565b60006137a4826136a1565b91506137af836136a1565b9250826137bf576137be6137f9565b5b828206905092915050565b7f4e487b7100000000000000000000000000000000000000000000000000000000600052601160045260246000fd5b7f4e487b7100000000000000000000000000000000000000000000000000000000600052601260045260246000fd5b7f4e487b7100000000000000000000000000000000000000000000000000000000600052602260045260246000fd5b7f4e487b7100000000000000000000000000000000000000000000000000000000600052604160045260246000fd5b6000601f19601f8301169050919050565b7f7d2c207b2274726169745f74797065223a20224c6f636174696f6e222c20227660008201527f616c7565223a2022416972706f727420564950204c6f756e6765220000000000602082015250565b7f4552433732313a207472616e7366657220746f206e6f6e20455243373231526560008201527f63656976657220696d706c656d656e7465720000000000000000000000000000602082015250565b7f2023000000000000000000000000000000000000000000000000000000000000600082015250565b7f4552433732313a20746f6b656e20616c7265616479206d696e74656400000000600082015250565b7f222c20226465736372697074696f6e223a2022546869732069732061206d657460008201527f6176657273652070617373706f7274204e465421222c2022696d616765223a2060208201527f2200000000000000000000000000000000000000000000000000000000000000604082015250565b7f4552433732313a207472616e7366657220746f20746865207a65726f2061646460008201527f7265737300000000000000000000000000000000000000000000000000000000602082015250565b7f4552433732313a20617070726f766520746f2063616c6c657200000000000000600082015250565b7f4552433732313a206f70657261746f7220717565727920666f72206e6f6e657860008201527f697374656e7420746f6b656e0000000000000000000000000000000000000000602082015250565b7f4552433732313a20617070726f76652063616c6c6572206973206e6f74206f7760008201527f6e6572206e6f7220617070726f76656420666f7220616c6c0000000000000000602082015250565b7f4552433732313a2062616c616e636520717565727920666f7220746865207a6560008201527f726f206164647265737300000000000000000000000000000000000000000000602082015250565b7f4552433732313a206f776e657220717565727920666f72206e6f6e657869737460008201527f656e7420746f6b656e0000000000000000000000000000000000000000000000602082015250565b7f4552433732313a206d696e7420746f20746865207a65726f2061646472657373600082015250565b7f4552433732313a20617070726f76656420717565727920666f72206e6f6e657860008201527f697374656e7420746f6b656e0000000000000000000000000000000000000000602082015250565b7f222c202261747472696275746573223a205b207b202274726169745f7479706560008201527f223a2022436c617373222c202276616c7565223a202200000000000000000000602082015250565b7f4552433732313a207472616e73666572206f6620746f6b656e2074686174206960008201527f73206e6f74206f776e0000000000000000000000000000000000000000000000602082015250565b7f7b226e616d65223a202200000000000000000000000000000000000000000000600082015250565b7f7d2c207b2274726169745f74797065223a20224c6f636174696f6e222c20227660008201527f616c7565223a20224172656e61227d205d7d0000000000000000000000000000602082015250565b7f4552433732313a20617070726f76616c20746f2063757272656e74206f776e6560008201527f7200000000000000000000000000000000000000000000000000000000000000602082015250565b7f7d2c207b2274726169745f74797065223a20224c6f636174696f6e222c20227660008201527f616c7565223a2022436974792200000000000000000000000000000000000000602082015250565b7f646174613a6170706c69636174696f6e2f6a736f6e3b6261736536342c000000600082015250565b7f4552433732313a207472616e736665722063616c6c6572206973206e6f74206f60008201527f776e6572206e6f7220617070726f766564000000000000000000000000000000602082015250565b7f7d2c207b2274726169745f74797065223a20224c6f636174696f6e222c20227660008201527f616c7565223a2022537562776179220000000000000000000000000000000000602082015250565b7f227d2c207b202274726169745f74797065223a20224c6f636174696f6e222c2060008201527f2276616c7565223a2022416972706f7274220000000000000000000000000000602082015250565b613efb81613637565b8114613f0657600080fd5b50565b613f1281613649565b8114613f1d57600080fd5b50565b613f2981613655565b8114613f3457600080fd5b50565b613f40816136a1565b8114613f4b57600080fd5b5056fe4d696e7465642050617373706f7274204e4654200a49443a202325730a496e6465783a2025734142434445464748494a4b4c4d4e4f505152535455565758595a6162636465666768696a6b6c6d6e6f707172737475767778797a303132333435363738392b2fa2646970667358221220144845652e7a5395e6d9b90512547df31510f37afd0795d1cfe58ca9c37f6d3564736f6c634300080400330a496e697469616c697a696e672050617373706f72740a4e616d653a2025730a547970653a202573",
  "linkReferences": {},
  "deployedLinkReferences": {}
}